{
  "contractName": "Research",
  "abi": [
    {
      "constant": true,
      "inputs": [
        {
          "internalType": "address",
          "name": "",
          "type": "address"
        }
      ],
      "name": "balanceMapping",
      "outputs": [
        {
          "internalType": "uint256",
          "name": "",
          "type": "uint256"
        }
      ],
      "payable": false,
      "stateMutability": "view",
      "type": "function"
    },
    {
      "constant": true,
      "inputs": [
        {
          "internalType": "uint256",
          "name": "",
          "type": "uint256"
        }
      ],
      "name": "paperMapping",
      "outputs": [
        {
          "internalType": "uint256",
          "name": "id",
          "type": "uint256"
        },
        {
          "internalType": "address payable",
          "name": "owner",
          "type": "address"
        },
        {
          "internalType": "string",
          "name": "authors",
          "type": "string"
        },
        {
          "internalType": "string",
          "name": "paperTitle",
          "type": "string"
        },
        {
          "internalType": "string",
          "name": "paperAbstract",
          "type": "string"
        },
        {
          "internalType": "string",
          "name": "paperURL",
          "type": "string"
        },
        {
          "internalType": "uint256",
          "name": "goal",
          "type": "uint256"
        },
        {
          "internalType": "uint256",
          "name": "totalContribution",
          "type": "uint256"
        }
      ],
      "payable": false,
      "stateMutability": "view",
      "type": "function"
    },
    {
      "constant": true,
      "inputs": [],
      "name": "totalPapers",
      "outputs": [
        {
          "internalType": "uint256",
          "name": "",
          "type": "uint256"
        }
      ],
      "payable": false,
      "stateMutability": "view",
      "type": "function"
    },
    {
      "constant": false,
      "inputs": [
        {
          "internalType": "string",
          "name": "_authors",
          "type": "string"
        },
        {
          "internalType": "string",
          "name": "_paperTitle",
          "type": "string"
        },
        {
          "internalType": "string",
          "name": "_abstract",
          "type": "string"
        },
        {
          "internalType": "string",
          "name": "_paperURL",
          "type": "string"
        },
        {
          "internalType": "uint256",
          "name": "_goal",
          "type": "uint256"
        }
      ],
      "name": "addPaper",
      "outputs": [],
      "payable": false,
      "stateMutability": "nonpayable",
      "type": "function"
    },
    {
      "constant": false,
      "inputs": [
        {
          "internalType": "uint256",
          "name": "_id",
          "type": "uint256"
        }
      ],
      "name": "fundPaper",
      "outputs": [],
      "payable": true,
      "stateMutability": "payable",
      "type": "function"
    },
    {
      "constant": false,
      "inputs": [],
      "name": "withdraw",
      "outputs": [],
      "payable": false,
      "stateMutability": "nonpayable",
      "type": "function"
    },
    {
      "constant": true,
      "inputs": [],
      "name": "contractBalance",
      "outputs": [
        {
          "internalType": "uint256",
          "name": "",
          "type": "uint256"
        }
      ],
      "payable": false,
      "stateMutability": "view",
      "type": "function"
    }
  ],
  "bytecode": "0x608060405234801561001057600080fd5b50610cee806100206000396000f3fe6080604052600436106100705760003560e01c8063990d79651161004e578063990d7965146100e5578063a32bc05a1461037c578063b499bc0e146103a7578063ca4186721461040c57610070565b8063208d2922146100755780633ccfd60b146100a35780638b7afe2e146100ba575b600080fd5b6100a16004803603602081101561008b57600080fd5b810190808035906020019092919050505061064c565b005b3480156100af57600080fd5b506100b8610705565b005b3480156100c657600080fd5b506100cf610824565b6040518082815260200191505060405180910390f35b3480156100f157600080fd5b5061037a600480360360a081101561010857600080fd5b810190808035906020019064010000000081111561012557600080fd5b82018360208201111561013757600080fd5b8035906020019184600183028401116401000000008311171561015957600080fd5b91908080601f016020809104026020016040519081016040528093929190818152602001838380828437600081840152601f19601f820116905080830192505050505050509192919290803590602001906401000000008111156101bc57600080fd5b8201836020820111156101ce57600080fd5b803590602001918460018302840111640100000000831117156101f057600080fd5b91908080601f016020809104026020016040519081016040528093929190818152602001838380828437600081840152601f19601f8201169050808301925050505050505091929192908035906020019064010000000081111561025357600080fd5b82018360208201111561026557600080fd5b8035906020019184600183028401116401000000008311171561028757600080fd5b91908080601f016020809104026020016040519081016040528093929190818152602001838380828437600081840152601f19601f820116905080830192505050505050509192919290803590602001906401000000008111156102ea57600080fd5b8201836020820111156102fc57600080fd5b8035906020019184600183028401116401000000008311171561031e57600080fd5b91908080601f016020809104026020016040519081016040528093929190818152602001838380828437600081840152601f19601f82011690508083019250505050505050919291929080359060200190929190505050610843565b005b34801561038857600080fd5b5061039161092e565b6040518082815260200191505060405180910390f35b3480156103b357600080fd5b506103f6600480360360208110156103ca57600080fd5b81019080803573ffffffffffffffffffffffffffffffffffffffff169060200190929190505050610934565b6040518082815260200191505060405180910390f35b34801561041857600080fd5b506104456004803603602081101561042f57600080fd5b810190808035906020019092919050505061094c565b604051808981526020018873ffffffffffffffffffffffffffffffffffffffff1673ffffffffffffffffffffffffffffffffffffffff1681526020018060200180602001806020018060200187815260200186815260200185810385528b818151815260200191508051906020019080838360005b838110156104d55780820151818401526020810190506104ba565b50505050905090810190601f1680156105025780820380516001836020036101000a031916815260200191505b5085810384528a818151815260200191508051906020019080838360005b8381101561053b578082015181840152602081019050610520565b50505050905090810190601f1680156105685780820380516001836020036101000a031916815260200191505b50858103835289818151815260200191508051906020019080838360005b838110156105a1578082015181840152602081019050610586565b50505050905090810190601f1680156105ce5780820380516001836020036101000a031916815260200191505b50858103825288818151815260200191508051906020019080838360005b838110156106075780820151818401526020810190506105ec565b50505050905090810190601f1680156106345780820380516001836020036101000a031916815260200191505b509c5050505050505050505050505060405180910390f35b6000341161065957600080fd5b600054811061066757600080fd5b600060016000838152602001908152602001600020905034816007016000828254019250508190555034600260008360010160009054906101000a900473ffffffffffffffffffffffffffffffffffffffff1673ffffffffffffffffffffffffffffffffffffffff1673ffffffffffffffffffffffffffffffffffffffff168152602001908152602001600020600082825401925050819055505050565b6000600260003373ffffffffffffffffffffffffffffffffffffffff1673ffffffffffffffffffffffffffffffffffffffff168152602001908152602001600020541161075157600080fd5b6000600260003373ffffffffffffffffffffffffffffffffffffffff1673ffffffffffffffffffffffffffffffffffffffff1681526020019081526020016000205490506000600260003373ffffffffffffffffffffffffffffffffffffffff1673ffffffffffffffffffffffffffffffffffffffff168152602001908152602001600020819055503373ffffffffffffffffffffffffffffffffffffffff166108fc829081150290604051600060405180830381858888f19350505050158015610820573d6000803e3d6000fd5b5050565b60003073ffffffffffffffffffffffffffffffffffffffff1631905090565b6000600160008054815260200190815260200160002090506000548160000181905550338160010160006101000a81548173ffffffffffffffffffffffffffffffffffffffff021916908373ffffffffffffffffffffffffffffffffffffffff160217905550858160020190805190602001906108c1929190610c14565b50848160030190805190602001906108da929190610c14565b50838160040190805190602001906108f3929190610c14565b508281600501908051906020019061090c929190610c14565b5081816006018190555060016000808282540192505081905550505050505050565b60005481565b60026020528060005260406000206000915090505481565b60016020528060005260406000206000915090508060000154908060010160009054906101000a900473ffffffffffffffffffffffffffffffffffffffff1690806002018054600181600116156101000203166002900480601f016020809104026020016040519081016040528092919081815260200182805460018160011615610100020316600290048015610a245780601f106109f957610100808354040283529160200191610a24565b820191906000526020600020905b815481529060010190602001808311610a0757829003601f168201915b505050505090806003018054600181600116156101000203166002900480601f016020809104026020016040519081016040528092919081815260200182805460018160011615610100020316600290048015610ac25780601f10610a9757610100808354040283529160200191610ac2565b820191906000526020600020905b815481529060010190602001808311610aa557829003601f168201915b505050505090806004018054600181600116156101000203166002900480601f016020809104026020016040519081016040528092919081815260200182805460018160011615610100020316600290048015610b605780601f10610b3557610100808354040283529160200191610b60565b820191906000526020600020905b815481529060010190602001808311610b4357829003601f168201915b505050505090806005018054600181600116156101000203166002900480601f016020809104026020016040519081016040528092919081815260200182805460018160011615610100020316600290048015610bfe5780601f10610bd357610100808354040283529160200191610bfe565b820191906000526020600020905b815481529060010190602001808311610be157829003601f168201915b5050505050908060060154908060070154905088565b828054600181600116156101000203166002900490600052602060002090601f016020900481019282601f10610c5557805160ff1916838001178555610c83565b82800160010185558215610c83579182015b82811115610c82578251825591602001919060010190610c67565b5b509050610c909190610c94565b5090565b610cb691905b80821115610cb2576000816000905550600101610c9a565b5090565b9056fea265627a7a723158207f160edb74f8b26ff758e25a5f9059ce0de10acc1a312cf53477d3b7fbb4260c64736f6c634300050c0032",
  "source": "pragma solidity ^0.5.0;\n\n\ncontract Research {\n    \n    struct Paper {\n        uint id;\n        address payable owner;\n        string authors;\n        string paperTitle;\n        string paperAbstract;\n        string paperURL;\n        uint goal;\n        uint totalContribution;\n    }\n    \n    uint public totalPapers;\n    \n    mapping(uint => Paper) public paperMapping;\n    \n    mapping(address => uint) public balanceMapping;\n    \n    function addPaper(string memory _authors, string memory _paperTitle, string memory _abstract, string memory _paperURL, uint _goal) public {\n        Paper storage p = paperMapping[totalPapers];\n        p.id = totalPapers;\n        p.owner = msg.sender;\n        p.authors = _authors;\n        p.paperTitle = _paperTitle;\n        p.paperAbstract = _abstract;\n        p.paperURL = _paperURL;\n        p.goal = _goal;\n        totalPapers += 1;\n    }\n    \n    function fundPaper(uint _id) public payable {\n        require(msg.value > 0);\n        require(_id < totalPapers);\n        Paper storage p = paperMapping[_id];\n        p.totalContribution += msg.value;\n        balanceMapping[p.owner] += msg.value;\n    }\n    \n    function withdraw() public {\n        require(balanceMapping[msg.sender] > 0);\n        uint val = balanceMapping[msg.sender];\n        balanceMapping[msg.sender] = 0;\n        address(msg.sender).transfer(val);\n    }\n    \n    function contractBalance() public view returns(uint) {\n        return address(this).balance;\n    }\n    \n}\n",
  "sourcePath": "/home/saru/Blockchain/spark-hackathon/research/contracts/Research.sol",
  "compiler": {
    "name": "solc",
    "version": "0.5.12+commit.7709ece9.Emscripten.clang"
  },
  "schemaVersion": "3.0.20",
  "updatedAt": "2020-08-11T08:26:28.895Z",
  "networkType": "ethereum",
  "devdoc": {
    "methods": {}
  },
  "userdoc": {
    "methods": {}
  }
}