{
  "contractName": "Research",
  "abi": [
    {
      "constant": true,
      "inputs": [
        {
          "internalType": "address",
          "name": "",
          "type": "address"
        }
      ],
      "name": "balanceMapping",
      "outputs": [
        {
          "internalType": "uint256",
          "name": "",
          "type": "uint256"
        }
      ],
      "payable": false,
      "stateMutability": "view",
      "type": "function"
    },
    {
      "constant": true,
      "inputs": [
        {
          "internalType": "uint256",
          "name": "",
          "type": "uint256"
        }
      ],
      "name": "paperMapping",
      "outputs": [
        {
          "internalType": "uint256",
          "name": "id",
          "type": "uint256"
        },
        {
          "internalType": "address payable",
          "name": "owner",
          "type": "address"
        },
        {
          "internalType": "string",
          "name": "authors",
          "type": "string"
        },
        {
          "internalType": "string",
          "name": "paperTitle",
          "type": "string"
        },
        {
          "internalType": "string",
          "name": "paperAbstract",
          "type": "string"
        },
        {
          "internalType": "string",
          "name": "paperURL",
          "type": "string"
        },
        {
          "internalType": "string",
          "name": "cid",
          "type": "string"
        },
        {
          "internalType": "uint256",
          "name": "goal",
          "type": "uint256"
        },
        {
          "internalType": "uint256",
          "name": "totalContribution",
          "type": "uint256"
        }
      ],
      "payable": false,
      "stateMutability": "view",
      "type": "function"
    },
    {
      "constant": true,
      "inputs": [],
      "name": "totalPapers",
      "outputs": [
        {
          "internalType": "uint256",
          "name": "",
          "type": "uint256"
        }
      ],
      "payable": false,
      "stateMutability": "view",
      "type": "function"
    },
    {
      "constant": false,
      "inputs": [
        {
          "internalType": "string",
          "name": "_authors",
          "type": "string"
        },
        {
          "internalType": "string",
          "name": "_paperTitle",
          "type": "string"
        },
        {
          "internalType": "string",
          "name": "_abstract",
          "type": "string"
        },
        {
          "internalType": "string",
          "name": "_paperURL",
          "type": "string"
        },
        {
          "internalType": "string",
          "name": "_cid",
          "type": "string"
        },
        {
          "internalType": "uint256",
          "name": "_goal",
          "type": "uint256"
        }
      ],
      "name": "addPaper",
      "outputs": [],
      "payable": false,
      "stateMutability": "nonpayable",
      "type": "function"
    },
    {
      "constant": false,
      "inputs": [
        {
          "internalType": "uint256",
          "name": "_id",
          "type": "uint256"
        }
      ],
      "name": "fundPaper",
      "outputs": [],
      "payable": true,
      "stateMutability": "payable",
      "type": "function"
    },
    {
      "constant": false,
      "inputs": [],
      "name": "withdraw",
      "outputs": [],
      "payable": false,
      "stateMutability": "nonpayable",
      "type": "function"
    },
    {
      "constant": true,
      "inputs": [],
      "name": "contractBalance",
      "outputs": [
        {
          "internalType": "uint256",
          "name": "",
          "type": "uint256"
        }
      ],
      "payable": false,
      "stateMutability": "view",
      "type": "function"
    }
  ],
  "bytecode": "0x608060405234801561001057600080fd5b50610e92806100206000396000f3fe6080604052600436106100705760003560e01c80638b7afe2e1161004e5780638b7afe2e146103e8578063a32bc05a14610413578063b499bc0e1461043e578063ca418672146104a357610070565b8063208d2922146100755780633ccfd60b146100a35780637a75468a146100ba575b600080fd5b6100a16004803603602081101561008b57600080fd5b810190808035906020019092919050505061074f565b005b3480156100af57600080fd5b506100b8610808565b005b3480156100c657600080fd5b506103e6600480360360c08110156100dd57600080fd5b81019080803590602001906401000000008111156100fa57600080fd5b82018360208201111561010c57600080fd5b8035906020019184600183028401116401000000008311171561012e57600080fd5b91908080601f016020809104026020016040519081016040528093929190818152602001838380828437600081840152601f19601f8201169050808301925050505050505091929192908035906020019064010000000081111561019157600080fd5b8201836020820111156101a357600080fd5b803590602001918460018302840111640100000000831117156101c557600080fd5b91908080601f016020809104026020016040519081016040528093929190818152602001838380828437600081840152601f19601f8201169050808301925050505050505091929192908035906020019064010000000081111561022857600080fd5b82018360208201111561023a57600080fd5b8035906020019184600183028401116401000000008311171561025c57600080fd5b91908080601f016020809104026020016040519081016040528093929190818152602001838380828437600081840152601f19601f820116905080830192505050505050509192919290803590602001906401000000008111156102bf57600080fd5b8201836020820111156102d157600080fd5b803590602001918460018302840111640100000000831117156102f357600080fd5b91908080601f016020809104026020016040519081016040528093929190818152602001838380828437600081840152601f19601f8201169050808301925050505050505091929192908035906020019064010000000081111561035657600080fd5b82018360208201111561036857600080fd5b8035906020019184600183028401116401000000008311171561038a57600080fd5b91908080601f016020809104026020016040519081016040528093929190818152602001838380828437600081840152601f19601f82011690508083019250505050505050919291929080359060200190929190505050610927565b005b3480156103f457600080fd5b506103fd610a2c565b6040518082815260200191505060405180910390f35b34801561041f57600080fd5b50610428610a34565b6040518082815260200191505060405180910390f35b34801561044a57600080fd5b5061048d6004803603602081101561046157600080fd5b81019080803573ffffffffffffffffffffffffffffffffffffffff169060200190929190505050610a3a565b6040518082815260200191505060405180910390f35b3480156104af57600080fd5b506104dc600480360360208110156104c657600080fd5b8101908080359060200190929190505050610a52565b604051808a81526020018973ffffffffffffffffffffffffffffffffffffffff1673ffffffffffffffffffffffffffffffffffffffff168152602001806020018060200180602001806020018060200188815260200187815260200186810386528d818151815260200191508051906020019080838360005b83811015610570578082015181840152602081019050610555565b50505050905090810190601f16801561059d5780820380516001836020036101000a031916815260200191505b5086810385528c818151815260200191508051906020019080838360005b838110156105d65780820151818401526020810190506105bb565b50505050905090810190601f1680156106035780820380516001836020036101000a031916815260200191505b5086810384528b818151815260200191508051906020019080838360005b8381101561063c578082015181840152602081019050610621565b50505050905090810190601f1680156106695780820380516001836020036101000a031916815260200191505b5086810383528a818151815260200191508051906020019080838360005b838110156106a2578082015181840152602081019050610687565b50505050905090810190601f1680156106cf5780820380516001836020036101000a031916815260200191505b50868103825289818151815260200191508051906020019080838360005b838110156107085780820151818401526020810190506106ed565b50505050905090810190601f1680156107355780820380516001836020036101000a031916815260200191505b509e50505050505050505050505050505060405180910390f35b6000341161075c57600080fd5b600054811061076a57600080fd5b600060016000838152602001908152602001600020905034816008016000828254019250508190555034600260008360010160009054906101000a900473ffffffffffffffffffffffffffffffffffffffff1673ffffffffffffffffffffffffffffffffffffffff1673ffffffffffffffffffffffffffffffffffffffff168152602001908152602001600020600082825401925050819055505050565b6000600260003373ffffffffffffffffffffffffffffffffffffffff1673ffffffffffffffffffffffffffffffffffffffff168152602001908152602001600020541161085457600080fd5b6000600260003373ffffffffffffffffffffffffffffffffffffffff1673ffffffffffffffffffffffffffffffffffffffff1681526020019081526020016000205490506000600260003373ffffffffffffffffffffffffffffffffffffffff1673ffffffffffffffffffffffffffffffffffffffff168152602001908152602001600020819055503373ffffffffffffffffffffffffffffffffffffffff166108fc829081150290604051600060405180830381858888f19350505050158015610923573d6000803e3d6000fd5b5050565b6000600160008054815260200190815260200160002090506000548160000181905550338160010160006101000a81548173ffffffffffffffffffffffffffffffffffffffff021916908373ffffffffffffffffffffffffffffffffffffffff160217905550868160020190805190602001906109a5929190610db8565b50858160030190805190602001906109be929190610db8565b50848160040190805190602001906109d7929190610db8565b50838160050190805190602001906109f0929190610db8565b5082816006019080519060200190610a09929190610db8565b508181600701819055506001600080828254019250508190555050505050505050565b600047905090565b60005481565b60026020528060005260406000206000915090505481565b60016020528060005260406000206000915090508060000154908060010160009054906101000a900473ffffffffffffffffffffffffffffffffffffffff1690806002018054600181600116156101000203166002900480601f016020809104026020016040519081016040528092919081815260200182805460018160011615610100020316600290048015610b2a5780601f10610aff57610100808354040283529160200191610b2a565b820191906000526020600020905b815481529060010190602001808311610b0d57829003601f168201915b505050505090806003018054600181600116156101000203166002900480601f016020809104026020016040519081016040528092919081815260200182805460018160011615610100020316600290048015610bc85780601f10610b9d57610100808354040283529160200191610bc8565b820191906000526020600020905b815481529060010190602001808311610bab57829003601f168201915b505050505090806004018054600181600116156101000203166002900480601f016020809104026020016040519081016040528092919081815260200182805460018160011615610100020316600290048015610c665780601f10610c3b57610100808354040283529160200191610c66565b820191906000526020600020905b815481529060010190602001808311610c4957829003601f168201915b505050505090806005018054600181600116156101000203166002900480601f016020809104026020016040519081016040528092919081815260200182805460018160011615610100020316600290048015610d045780601f10610cd957610100808354040283529160200191610d04565b820191906000526020600020905b815481529060010190602001808311610ce757829003601f168201915b505050505090806006018054600181600116156101000203166002900480601f016020809104026020016040519081016040528092919081815260200182805460018160011615610100020316600290048015610da25780601f10610d7757610100808354040283529160200191610da2565b820191906000526020600020905b815481529060010190602001808311610d8557829003601f168201915b5050505050908060070154908060080154905089565b828054600181600116156101000203166002900490600052602060002090601f016020900481019282601f10610df957805160ff1916838001178555610e27565b82800160010185558215610e27579182015b82811115610e26578251825591602001919060010190610e0b565b5b509050610e349190610e38565b5090565b610e5a91905b80821115610e56576000816000905550600101610e3e565b5090565b9056fea265627a7a7231582009a6fa4959f4b265b739437af857eb0604a4c5913948821e93813351d7ca62c464736f6c63430005100032",
  "source": "pragma solidity ^0.5.0;\n\n\ncontract Research {\n    \n    struct Paper {\n        uint id;\n        address payable owner;\n        string authors;\n        string paperTitle;\n        string paperAbstract;\n        string paperURL;\n        string cid;\n        uint goal;\n        uint totalContribution;\n    }\n    \n    uint public totalPapers;\n    \n    mapping(uint => Paper) public paperMapping;\n    \n    mapping(address => uint) public balanceMapping;\n    \n    function addPaper(string memory _authors, string memory _paperTitle, string memory _abstract, string memory _paperURL, string memory _cid, uint _goal) public {\n        Paper storage p = paperMapping[totalPapers];\n        p.id = totalPapers;\n        p.owner = msg.sender;\n        p.authors = _authors;\n        p.paperTitle = _paperTitle;\n        p.paperAbstract = _abstract;\n        p.paperURL = _paperURL;\n        p.cid = _cid;\n        p.goal = _goal;\n        totalPapers += 1;\n    }\n    \n    function fundPaper(uint _id) public payable {\n        require(msg.value > 0);\n        require(_id < totalPapers);\n        Paper storage p = paperMapping[_id];\n        p.totalContribution += msg.value;\n        balanceMapping[p.owner] += msg.value;\n    }\n    \n    function withdraw() public {\n        require(balanceMapping[msg.sender] > 0);\n        uint val = balanceMapping[msg.sender];\n        balanceMapping[msg.sender] = 0;\n        address(msg.sender).transfer(val);\n    }\n    \n    function contractBalance() public view returns(uint) {\n        return address(this).balance;\n    }\n    \n}\n",
  "sourcePath": "/Users/riyasingh/myapps/research-app-filecoin/contracts/Research.sol",
  "compiler": {
    "name": "solc",
    "version": "0.5.16+commit.9c3226ce.Emscripten.clang"
  },
  "schemaVersion": "3.2.3",
  "updatedAt": "2020-08-16T16:39:58.998Z",
  "networkType": "ethereum",
  "devdoc": {
    "methods": {}
  },
  "userdoc": {
    "methods": {}
  }
}